{
    "contractName": "PresaleNFT",
    "abi": [
        {
            "inputs": [],
            "stateMutability": "nonpayable",
            "type": "constructor"
        },
        {
            "anonymous": false,
            "inputs": [
                {
                    "indexed": true,
                    "internalType": "address",
                    "name": "owner",
                    "type": "address"
                },
                {
                    "indexed": true,
                    "internalType": "address",
                    "name": "approved",
                    "type": "address"
                },
                {
                    "indexed": true,
                    "internalType": "uint256",
                    "name": "tokenId",
                    "type": "uint256"
                }
            ],
            "name": "Approval",
            "type": "event"
        },
        {
            "anonymous": false,
            "inputs": [
                {
                    "indexed": true,
                    "internalType": "address",
                    "name": "owner",
                    "type": "address"
                },
                {
                    "indexed": true,
                    "internalType": "address",
                    "name": "operator",
                    "type": "address"
                },
                {
                    "indexed": false,
                    "internalType": "bool",
                    "name": "approved",
                    "type": "bool"
                }
            ],
            "name": "ApprovalForAll",
            "type": "event"
        },
        {
            "anonymous": false,
            "inputs": [
                {
                    "indexed": true,
                    "internalType": "address",
                    "name": "previousOwner",
                    "type": "address"
                },
                {
                    "indexed": true,
                    "internalType": "address",
                    "name": "newOwner",
                    "type": "address"
                }
            ],
            "name": "OwnershipTransferCompleted",
            "type": "event"
        },
        {
            "anonymous": false,
            "inputs": [
                {
                    "indexed": true,
                    "internalType": "address",
                    "name": "previousOwner",
                    "type": "address"
                },
                {
                    "indexed": true,
                    "internalType": "address",
                    "name": "newOwner",
                    "type": "address"
                }
            ],
            "name": "OwnershipTransferInitiated",
            "type": "event"
        },
        {
            "anonymous": false,
            "inputs": [
                {
                    "indexed": true,
                    "internalType": "address",
                    "name": "previousOwner",
                    "type": "address"
                },
                {
                    "indexed": true,
                    "internalType": "address",
                    "name": "newOwner",
                    "type": "address"
                }
            ],
            "name": "OwnershipTransferred",
            "type": "event"
        },
        {
            "anonymous": false,
            "inputs": [
                {
                    "indexed": true,
                    "internalType": "address",
                    "name": "from",
                    "type": "address"
                },
                {
                    "indexed": true,
                    "internalType": "address",
                    "name": "to",
                    "type": "address"
                },
                {
                    "indexed": true,
                    "internalType": "uint256",
                    "name": "tokenId",
                    "type": "uint256"
                }
            ],
            "name": "Transfer",
            "type": "event"
        },
        {
            "inputs": [],
            "name": "DISCOUNTED_PRICE",
            "outputs": [
                {
                    "internalType": "uint256",
                    "name": "",
                    "type": "uint256"
                }
            ],
            "stateMutability": "view",
            "type": "function"
        },
        {
            "inputs": [],
            "name": "PRICE",
            "outputs": [
                {
                    "internalType": "uint256",
                    "name": "",
                    "type": "uint256"
                }
            ],
            "stateMutability": "view",
            "type": "function"
        },
        {
            "inputs": [
                {
                    "internalType": "address",
                    "name": "_who",
                    "type": "address"
                },
                {
                    "internalType": "uint256",
                    "name": "_amount",
                    "type": "uint256"
                },
                {
                    "internalType": "uint256",
                    "name": "_index",
                    "type": "uint256"
                }
            ],
            "name": "_addToPresaleList",
            "outputs": [],
            "stateMutability": "nonpayable",
            "type": "function"
        },
        {
            "inputs": [],
            "name": "acceptOwnership",
            "outputs": [],
            "stateMutability": "nonpayable",
            "type": "function"
        },
        {
            "inputs": [
                {
                    "internalType": "address",
                    "name": "to",
                    "type": "address"
                },
                {
                    "internalType": "uint256",
                    "name": "tokenId",
                    "type": "uint256"
                }
            ],
            "name": "approve",
            "outputs": [],
            "stateMutability": "nonpayable",
            "type": "function"
        },
        {
            "inputs": [
                {
                    "internalType": "address",
                    "name": "owner",
                    "type": "address"
                }
            ],
            "name": "balanceOf",
            "outputs": [
                {
                    "internalType": "uint256",
                    "name": "",
                    "type": "uint256"
                }
            ],
            "stateMutability": "view",
            "type": "function"
        },
        {
            "inputs": [
                {
                    "internalType": "uint256",
                    "name": "tokenId",
                    "type": "uint256"
                }
            ],
            "name": "getApproved",
            "outputs": [
                {
                    "internalType": "address",
                    "name": "",
                    "type": "address"
                }
            ],
            "stateMutability": "view",
            "type": "function"
        },
        {
            "inputs": [
                {
                    "internalType": "address",
                    "name": "owner",
                    "type": "address"
                },
                {
                    "internalType": "address",
                    "name": "operator",
                    "type": "address"
                }
            ],
            "name": "isApprovedForAll",
            "outputs": [
                {
                    "internalType": "bool",
                    "name": "",
                    "type": "bool"
                }
            ],
            "stateMutability": "view",
            "type": "function"
        },
        {
            "inputs": [],
            "name": "name",
            "outputs": [
                {
                    "internalType": "string",
                    "name": "",
                    "type": "string"
                }
            ],
            "stateMutability": "view",
            "type": "function"
        },
        {
            "inputs": [],
            "name": "owner",
            "outputs": [
                {
                    "internalType": "address",
                    "name": "",
                    "type": "address"
                }
            ],
            "stateMutability": "view",
            "type": "function"
        },
        {
            "inputs": [
                {
                    "internalType": "uint256",
                    "name": "tokenId",
                    "type": "uint256"
                }
            ],
            "name": "ownerOf",
            "outputs": [
                {
                    "internalType": "address",
                    "name": "",
                    "type": "address"
                }
            ],
            "stateMutability": "view",
            "type": "function"
        },
        {
            "inputs": [],
            "name": "pendingOwner",
            "outputs": [
                {
                    "internalType": "address",
                    "name": "",
                    "type": "address"
                }
            ],
            "stateMutability": "view",
            "type": "function"
        },
        {
            "inputs": [
                {
                    "internalType": "uint256",
                    "name": "_amount",
                    "type": "uint256"
                },
                {
                    "internalType": "uint256",
                    "name": "_index",
                    "type": "uint256"
                },
                {
                    "internalType": "bytes32[]",
                    "name": "_merkleProof",
                    "type": "bytes32[]"
                }
            ],
            "name": "presale",
            "outputs": [],
            "stateMutability": "payable",
            "type": "function"
        },
        {
            "inputs": [],
            "name": "publicMint",
            "outputs": [],
            "stateMutability": "payable",
            "type": "function"
        },
        {
            "inputs": [],
            "name": "renounceOwnership",
            "outputs": [],
            "stateMutability": "pure",
            "type": "function"
        },
        {
            "inputs": [
                {
                    "internalType": "uint256",
                    "name": "_tokenId",
                    "type": "uint256"
                },
                {
                    "internalType": "uint256",
                    "name": "_salePrice",
                    "type": "uint256"
                }
            ],
            "name": "royaltyInfo",
            "outputs": [
                {
                    "internalType": "address",
                    "name": "",
                    "type": "address"
                },
                {
                    "internalType": "uint256",
                    "name": "",
                    "type": "uint256"
                }
            ],
            "stateMutability": "view",
            "type": "function"
        },
        {
            "inputs": [
                {
                    "internalType": "address",
                    "name": "from",
                    "type": "address"
                },
                {
                    "internalType": "address",
                    "name": "to",
                    "type": "address"
                },
                {
                    "internalType": "uint256",
                    "name": "tokenId",
                    "type": "uint256"
                }
            ],
            "name": "safeTransferFrom",
            "outputs": [],
            "stateMutability": "nonpayable",
            "type": "function"
        },
        {
            "inputs": [
                {
                    "internalType": "address",
                    "name": "from",
                    "type": "address"
                },
                {
                    "internalType": "address",
                    "name": "to",
                    "type": "address"
                },
                {
                    "internalType": "uint256",
                    "name": "tokenId",
                    "type": "uint256"
                },
                {
                    "internalType": "bytes",
                    "name": "data",
                    "type": "bytes"
                }
            ],
            "name": "safeTransferFrom",
            "outputs": [],
            "stateMutability": "nonpayable",
            "type": "function"
        },
        {
            "inputs": [
                {
                    "internalType": "address",
                    "name": "operator",
                    "type": "address"
                },
                {
                    "internalType": "bool",
                    "name": "approved",
                    "type": "bool"
                }
            ],
            "name": "setApprovalForAll",
            "outputs": [],
            "stateMutability": "nonpayable",
            "type": "function"
        },
        {
            "inputs": [
                {
                    "internalType": "bytes32",
                    "name": "merkleRoot_",
                    "type": "bytes32"
                }
            ],
            "name": "setMerkleRoot",
            "outputs": [],
            "stateMutability": "nonpayable",
            "type": "function"
        },
        {
            "inputs": [
                {
                    "internalType": "bytes4",
                    "name": "interfaceId",
                    "type": "bytes4"
                }
            ],
            "name": "supportsInterface",
            "outputs": [
                {
                    "internalType": "bool",
                    "name": "",
                    "type": "bool"
                }
            ],
            "stateMutability": "view",
            "type": "function"
        },
        {
            "inputs": [],
            "name": "symbol",
            "outputs": [
                {
                    "internalType": "string",
                    "name": "",
                    "type": "string"
                }
            ],
            "stateMutability": "view",
            "type": "function"
        },
        {
            "inputs": [
                {
                    "internalType": "uint256",
                    "name": "tokenId",
                    "type": "uint256"
                }
            ],
            "name": "tokenURI",
            "outputs": [
                {
                    "internalType": "string",
                    "name": "",
                    "type": "string"
                }
            ],
            "stateMutability": "view",
            "type": "function"
        },
        {
            "inputs": [],
            "name": "totalSupply",
            "outputs": [
                {
                    "internalType": "uint256",
                    "name": "",
                    "type": "uint256"
                }
            ],
            "stateMutability": "view",
            "type": "function"
        },
        {
            "inputs": [
                {
                    "internalType": "address",
                    "name": "from",
                    "type": "address"
                },
                {
                    "internalType": "address",
                    "name": "to",
                    "type": "address"
                },
                {
                    "internalType": "uint256",
                    "name": "tokenId",
                    "type": "uint256"
                }
            ],
            "name": "transferFrom",
            "outputs": [],
            "stateMutability": "nonpayable",
            "type": "function"
        },
        {
            "inputs": [
                {
                    "internalType": "address",
                    "name": "newOwner",
                    "type": "address"
                }
            ],
            "name": "transferOwnership",
            "outputs": [],
            "stateMutability": "nonpayable",
            "type": "function"
        }
    ],
    "bytecode": "60c06040523480156200001157600080fd5b506040518060400160405280600b81526020016a141c995cd85b194813919560aa1b815250604051806040016040528060048152602001631413919560e21b8152508160009081620000649190620002d3565b506001620000738282620002d3565b505050620000906200008a620000d360201b60201c565b620000d7565b66f8b0a10e470000608052669fdf42f6e4800060a0526001600955600a80546001600160a01b03191633908117909155620000cd9060fa62000129565b6200039f565b3390565b600680546001600160a01b038381166001600160a01b0319831681179093556040519116919082907f8be0079c531659141344cd1fd0a4f28419497f9722a3daafe3b4186f6b6457e090600090a35050565b6127106001600160601b03821611156200019d5760405162461bcd60e51b815260206004820152602a60248201527f455243323938313a20726f79616c7479206665652077696c6c206578636565646044820152692073616c65507269636560b01b60648201526084015b60405180910390fd5b6001600160a01b038216620001f55760405162461bcd60e51b815260206004820152601960248201527f455243323938313a20696e76616c696420726563656976657200000000000000604482015260640162000194565b604080518082019091526001600160a01b039092168083526001600160601b039091166020909201829052600160a01b90910217600755565b634e487b7160e01b600052604160045260246000fd5b600181811c908216806200025957607f821691505b6020821081036200027a57634e487b7160e01b600052602260045260246000fd5b50919050565b601f821115620002ce57600081815260208120601f850160051c81016020861015620002a95750805b601f850160051c820191505b81811015620002ca57828155600101620002b5565b5050505b505050565b81516001600160401b03811115620002ef57620002ef6200022e565b620003078162000300845462000244565b8462000280565b602080601f8311600181146200033f5760008415620003265750858301515b600019600386901b1c1916600185901b178555620002ca565b600085815260208120601f198616915b8281101562000370578886015182559484019460019091019084016200034f565b50858210156200038f5787850151600019600388901b60f8161c191681555b5050505050600190811b01905550565b60805160a051611ef2620003d36000396000818161037e0152610c460152600081816103b201526108530152611ef26000f3fe6080604052600436106101815760003560e01c80637cb64759116100d1578063a3e9ecb91161008a578063c8a12db211610064578063c8a12db21461047a578063e30c39781461049a578063e985e9c5146104b8578063f2fde38b146104d857600080fd5b8063a3e9ecb914610427578063b88d4fde1461043a578063c87b56dd1461045a57600080fd5b80637cb647591461034c5780638cc6d1621461036c5780638d859f3e146103a05780638da5cb5b146103d457806395d89b41146103f2578063a22cb4651461040757600080fd5b806326092b831161013e5780636352211e116101185780636352211e146102e257806370a0823114610302578063715018a61461032257806379ba50971461033757600080fd5b806326092b831461027b5780632a55205a1461028357806342842e0e146102c257600080fd5b806301ffc9a71461018657806306fdde03146101bb578063081812fc146101dd578063095ea7b31461021557806318160ddd1461023757806323b872dd1461025b575b600080fd5b34801561019257600080fd5b506101a66101a1366004611928565b6104f8565b60405190151581526020015b60405180910390f35b3480156101c757600080fd5b506101d0610574565b6040516101b29190611995565b3480156101e957600080fd5b506101fd6101f83660046119a8565b610606565b6040516001600160a01b0390911681526020016101b2565b34801561022157600080fd5b506102356102303660046119dd565b61062d565b005b34801561024357600080fd5b5061024d60095481565b6040519081526020016101b2565b34801561026757600080fd5b50610235610276366004611a07565b610747565b610235610778565b34801561028f57600080fd5b506102a361029e366004611a43565b610915565b604080516001600160a01b0390931683526020830191909152016101b2565b3480156102ce57600080fd5b506102356102dd366004611a07565b6109c1565b3480156102ee57600080fd5b506101fd6102fd3660046119a8565b6109dc565b34801561030e57600080fd5b5061024d61031d366004611a65565b610a3c565b34801561032e57600080fd5b50610235610ac2565b34801561034357600080fd5b50610235610afe565b34801561035857600080fd5b506102356103673660046119a8565b601055565b34801561037857600080fd5b5061024d7f000000000000000000000000000000000000000000000000000000000000000081565b3480156103ac57600080fd5b5061024d7f000000000000000000000000000000000000000000000000000000000000000081565b3480156103e057600080fd5b50600a546001600160a01b03166101fd565b3480156103fe57600080fd5b506101d0610be2565b34801561041357600080fd5b50610235610422366004611a80565b610bf1565b610235610435366004611abc565b610c00565b34801561044657600080fd5b50610235610455366004611b55565b610e44565b34801561046657600080fd5b506101d06104753660046119a8565b610e7c565b34801561048657600080fd5b50610235610495366004611c31565b610ef0565b3480156104a657600080fd5b50600b546001600160a01b03166101fd565b3480156104c457600080fd5b506101a66104d3366004611c64565b610fd3565b3480156104e457600080fd5b506102356104f3366004611a65565b611001565b60006001600160e01b031982166380ac58cd60e01b148061052957506001600160e01b03198216635b5e139f60e01b145b8061054457506001600160e01b03198216632baae9fd60e01b145b8061055f57506001600160e01b031982166301ffc9a760e01b145b8061056e575061056e82611142565b92915050565b60606000805461058390611c97565b80601f01602080910402602001604051908101604052809291908181526020018280546105af90611c97565b80156105fc5780601f106105d1576101008083540402835291602001916105fc565b820191906000526020600020905b8154815290600101906020018083116105df57829003601f168201915b5050505050905090565b600061061182611167565b506000908152600460205260409020546001600160a01b031690565b6000610638826109dc565b9050806001600160a01b0316836001600160a01b0316036106aa5760405162461bcd60e51b815260206004820152602160248201527f4552433732313a20617070726f76616c20746f2063757272656e74206f776e656044820152603960f91b60648201526084015b60405180910390fd5b336001600160a01b03821614806106c657506106c68133610fd3565b6107385760405162461bcd60e51b815260206004820152603d60248201527f4552433732313a20617070726f76652063616c6c6572206973206e6f7420746f60448201527f6b656e206f776e6572206f7220617070726f76656420666f7220616c6c00000060648201526084016106a1565b61074283836111c9565b505050565b6107513382611237565b61076d5760405162461bcd60e51b81526004016106a190611cd1565b610742838383611296565b3332146107bc5760405162461bcd60e51b8152602060048201526012602482015271189bdd081a5cc81b9bdd08185b1b1bddd95960721b60448201526064016106a1565b600954336000908152600c6020526040902054600b82106108115760405162461bcd60e51b815260206004820152600f60248201526e1cdd5c1c1b1e48195e18d959591959608a1b60448201526064016106a1565b600281106108515760405162461bcd60e51b815260206004820152600d60248201526c1b1a5b5a5d081c995858da1959609a1b60448201526064016106a1565b7f000000000000000000000000000000000000000000000000000000000000000034146108ae5760405162461bcd60e51b815260206004820152600b60248201526a77726f6e6720707269636560a81b60448201526064016106a1565b336000818152600c6020908152604080832080546001019055858352600f90915280822080546001600160a01b0319168417905551849291907fddf252ad1be2c89b69c2b068fc378daa952ba7f163c4a11628f55a4df523b3ef908290a450600101600955565b60008281526008602090815260408083208151808301909252546001600160a01b038116808352600160a01b9091046001600160601b031692820192909252829161098a5750604080518082019091526007546001600160a01b0381168252600160a01b90046001600160601b031660208201525b6020810151600090612710906109a9906001600160601b031687611d34565b6109b39190611d4b565b915196919550909350505050565b61074283838360405180602001604052806000815250610e44565b6000818152600260205260408120546001600160a01b03168061056e5760405162461bcd60e51b8152602060048201526018602482015277115490cdcc8c4e881a5b9d985b1a59081d1bdad95b88125160421b60448201526064016106a1565b60006001600160a01b038216610aa65760405162461bcd60e51b815260206004820152602960248201527f4552433732313a2061646472657373207a65726f206973206e6f7420612076616044820152683634b21037bbb732b960b91b60648201526084016106a1565b506001600160a01b031660009081526003602052604090205490565b60405162461bcd60e51b815260206004820152600f60248201526e63616e6e6f742072656e6f756e636560881b60448201526064016106a1565b565b600b546001600160a01b03163314610b6f5760405162461bcd60e51b815260206004820152602e60248201527f5365637572654f776e61626c653a2063616c6c6572206973206e6f742074686560448201526d103832b73234b7339037bbb732b960911b60648201526084016106a1565b600b8054600a80546001600160a01b0383166001600160a01b03199182168117909255909116909155610ba1906113fa565b600b54600a546040516001600160a01b0392831692909116907fe9a5158ac7353c7c7322ececc080bc8e89334efa5795b6e21e40eb266b0003d690600090a3565b60606001805461058390611c97565b610bfc33838361144c565b5050565b333214610c445760405162461bcd60e51b8152602060048201526012602482015271189bdd081a5cc81b9bdd08185b1b1bddd95960721b60448201526064016106a1565b7f00000000000000000000000000000000000000000000000000000000000000003414610ca15760405162461bcd60e51b815260206004820152600b60248201526a77726f6e6720707269636560a81b60448201526064016106a1565b610cde3383838080602002602001604051908101604052809392919081815260200183836020028082843760009201919091525061151a92505050565b610d2a5760405162461bcd60e51b815260206004820152601960248201527f61646472657373206973206e6f74207265636f676e697a65640000000000000060448201526064016106a1565b600883901c600090815260116020526040902054600160ff85161b16610d925760405162461bcd60e51b815260206004820152601d60248201527f616464726573732063616e6e6f74206d696e7465642070726573616c6500000060448201526064016106a1565b600954336000818152600d6020908152604080832080546001019055848352600f90915280822080546001600160a01b0319168417905551839291907fddf252ad1be2c89b69c2b068fc378daa952ba7f163c4a11628f55a4df523b3ef908290a46001016009819055336000908152600e6020908152604080832054600d9092529091205403610e3d57600884901c60009081526011602052604090208054600160ff87161b191690555b5050505050565b610e4e3383611237565b610e6a5760405162461bcd60e51b81526004016106a190611cd1565b610e768484848461153a565b50505050565b6060610e8782611167565b6000610e9e60408051602081019091526000815290565b90506000815111610ebe5760405180602001604052806000815250610ee9565b80610ec88461156d565b604051602001610ed9929190611d6d565b6040516020818303038152906040525b9392505050565b610ef8611600565b600b8210610f485760405162461bcd60e51b815260206004820152601860248201527f63616e6e6f742073657420746f206d617820737570706c79000000000000000060448201526064016106a1565b80836001600160a01b031614610fa05760405162461bcd60e51b815260206004820152601d60248201527f696e76616c696420696e64657820666f7220746865206164647265737300000060448201526064016106a1565b600881901c60009081526011602052604090208054600160ff84161b17905550336000908152600e602052604090205550565b6001600160a01b03918216600090815260056020908152604080832093909416825291909152205460ff1690565b611009611600565b6001600160a01b0381166110745760405162461bcd60e51b815260206004820152602c60248201527f5365637572654f776e61626c653a206e6577206f776e6572206973207468652060448201526b7a65726f206164647265737360a01b60648201526084016106a1565b600a546001600160a01b03908116908216036110f05760405162461bcd60e51b815260206004820152603560248201527f5365637572654f776e61626c653a206e6577206f776e657220697320616c726560448201527430b23c903a34329031bab93932b73a1037bbb732b960591b60648201526084016106a1565b600b80546001600160a01b0319166001600160a01b03838116918217909255600a54604051919216907fb150023a879fd806e3599b6ca8ee3b60f0e360ab3846d128d67ebce1a391639a90600090a350565b60006001600160e01b0319821663152a902d60e11b148061056e575061056e8261165a565b6000818152600260205260409020546001600160a01b03166111c65760405162461bcd60e51b8152602060048201526018602482015277115490cdcc8c4e881a5b9d985b1a59081d1bdad95b88125160421b60448201526064016106a1565b50565b600081815260046020526040902080546001600160a01b0319166001600160a01b03841690811790915581906111fe826109dc565b6001600160a01b03167f8c5be1e5ebec7d5bd14f71427d1e84f3dd0314c0f7b2291e5b200ac8c7c3b92560405160405180910390a45050565b600080611243836109dc565b9050806001600160a01b0316846001600160a01b0316148061126a575061126a8185610fd3565b8061128e5750836001600160a01b031661128384610606565b6001600160a01b0316145b949350505050565b826001600160a01b03166112a9826109dc565b6001600160a01b0316146112cf5760405162461bcd60e51b81526004016106a190611d9c565b6001600160a01b0382166113315760405162461bcd60e51b8152602060048201526024808201527f4552433732313a207472616e7366657220746f20746865207a65726f206164646044820152637265737360e01b60648201526084016106a1565b826001600160a01b0316611344826109dc565b6001600160a01b03161461136a5760405162461bcd60e51b81526004016106a190611d9c565b600081815260046020908152604080832080546001600160a01b03199081169091556001600160a01b0387811680865260038552838620805460001901905590871680865283862080546001019055868652600290945282852080549092168417909155905184937fddf252ad1be2c89b69c2b068fc378daa952ba7f163c4a11628f55a4df523b3ef91a4505050565b600680546001600160a01b038381166001600160a01b0319831681179093556040519116919082907f8be0079c531659141344cd1fd0a4f28419497f9722a3daafe3b4186f6b6457e090600090a35050565b816001600160a01b0316836001600160a01b0316036114ad5760405162461bcd60e51b815260206004820152601960248201527f4552433732313a20617070726f766520746f2063616c6c65720000000000000060448201526064016106a1565b6001600160a01b03838116600081815260056020908152604080832094871680845294825291829020805460ff191686151590811790915591519182527f17307eab39ab6107e8899845ad3d59bd9653f200f220920489ca2b5937696c31910160405180910390a3505050565b6000808360601b6001600160601b031916905061128e83601054836116aa565b611545848484611296565b611551848484846116c0565b610e765760405162461bcd60e51b81526004016106a190611de1565b6060600061157a836117c1565b600101905060008167ffffffffffffffff81111561159a5761159a611b3f565b6040519080825280601f01601f1916602001820160405280156115c4576020820181803683370190505b5090508181016020015b600019016f181899199a1a9b1b9c1cb0b131b232b360811b600a86061a8153600a85049450846115ce57509392505050565b600a546001600160a01b03163314610afc5760405162461bcd60e51b815260206004820181905260248201527f4f776e61626c653a2063616c6c6572206973206e6f7420746865206f776e657260448201526064016106a1565b60006001600160e01b031982166380ac58cd60e01b148061168b57506001600160e01b03198216635b5e139f60e01b145b8061056e57506301ffc9a760e01b6001600160e01b031983161461056e565b6000826116b78584611899565b14949350505050565b60006001600160a01b0384163b156117b657604051630a85bd0160e11b81526001600160a01b0385169063150b7a0290611704903390899088908890600401611e33565b6020604051808303816000875af192505050801561173f575060408051601f3d908101601f1916820190925261173c91810190611e70565b60015b61179c573d80801561176d576040519150601f19603f3d011682016040523d82523d6000602084013e611772565b606091505b5080516000036117945760405162461bcd60e51b81526004016106a190611de1565b805181602001fd5b6001600160e01b031916630a85bd0160e11b14905061128e565b506001949350505050565b60008072184f03e93ff9f4daa797ed6e38ed64bf6a1f0160401b83106118005772184f03e93ff9f4daa797ed6e38ed64bf6a1f0160401b830492506040015b6d04ee2d6d415b85acef8100000000831061182c576d04ee2d6d415b85acef8100000000830492506020015b662386f26fc10000831061184a57662386f26fc10000830492506010015b6305f5e1008310611862576305f5e100830492506008015b612710831061187657612710830492506004015b60648310611888576064830492506002015b600a831061056e5760010192915050565b600081815b84518110156118de576118ca828683815181106118bd576118bd611e8d565b60200260200101516118e6565b9150806118d681611ea3565b91505061189e565b509392505050565b6000818310611902576000828152602084905260409020610ee9565b5060009182526020526040902090565b6001600160e01b0319811681146111c657600080fd5b60006020828403121561193a57600080fd5b8135610ee981611912565b60005b83811015611960578181015183820152602001611948565b50506000910152565b60008151808452611981816020860160208601611945565b601f01601f19169290920160200192915050565b602081526000610ee96020830184611969565b6000602082840312156119ba57600080fd5b5035919050565b80356001600160a01b03811681146119d857600080fd5b919050565b600080604083850312156119f057600080fd5b6119f9836119c1565b946020939093013593505050565b600080600060608486031215611a1c57600080fd5b611a25846119c1565b9250611a33602085016119c1565b9150604084013590509250925092565b60008060408385031215611a5657600080fd5b50508035926020909101359150565b600060208284031215611a7757600080fd5b610ee9826119c1565b60008060408385031215611a9357600080fd5b611a9c836119c1565b915060208301358015158114611ab157600080fd5b809150509250929050565b60008060008060608587031215611ad257600080fd5b8435935060208501359250604085013567ffffffffffffffff80821115611af857600080fd5b818701915087601f830112611b0c57600080fd5b813581811115611b1b57600080fd5b8860208260051b8501011115611b3057600080fd5b95989497505060200194505050565b634e487b7160e01b600052604160045260246000fd5b60008060008060808587031215611b6b57600080fd5b611b74856119c1565b9350611b82602086016119c1565b925060408501359150606085013567ffffffffffffffff80821115611ba657600080fd5b818701915087601f830112611bba57600080fd5b813581811115611bcc57611bcc611b3f565b604051601f8201601f19908116603f01168101908382118183101715611bf457611bf4611b3f565b816040528281528a6020848701011115611c0d57600080fd5b82602086016020830137600060208483010152809550505050505092959194509250565b600080600060608486031215611c4657600080fd5b611c4f846119c1565b95602085013595506040909401359392505050565b60008060408385031215611c7757600080fd5b611c80836119c1565b9150611c8e602084016119c1565b90509250929050565b600181811c90821680611cab57607f821691505b602082108103611ccb57634e487b7160e01b600052602260045260246000fd5b50919050565b6020808252602d908201527f4552433732313a2063616c6c6572206973206e6f7420746f6b656e206f776e6560408201526c1c881bdc88185c1c1c9bdd9959609a1b606082015260800190565b634e487b7160e01b600052601160045260246000fd5b808202811582820484141761056e5761056e611d1e565b600082611d6857634e487b7160e01b600052601260045260246000fd5b500490565b60008351611d7f818460208801611945565b835190830190611d93818360208801611945565b01949350505050565b60208082526025908201527f4552433732313a207472616e736665722066726f6d20696e636f72726563742060408201526437bbb732b960d91b606082015260800190565b60208082526032908201527f4552433732313a207472616e7366657220746f206e6f6e20455243373231526560408201527131b2b4bb32b91034b6b83632b6b2b73a32b960711b606082015260800190565b6001600160a01b0385811682528416602082015260408101839052608060608201819052600090611e6690830184611969565b9695505050505050565b600060208284031215611e8257600080fd5b8151610ee981611912565b634e487b7160e01b600052603260045260246000fd5b600060018201611eb557611eb5611d1e565b506001019056fea26469706673582212207244454c11a64403b7853b69c24bfe82af251a9b70a4282f95b33ff82f2b192f64736f6c63430008130033",
    "sourcePath": "/home/rizary/rareskills/solidity-bootcamp/src/PresaleNFT.sol",
    "compiler": {
        "name": "solc",
        "version": "0.8.19+commit.7dd6d404"
    },
    "functionHashes": {
        "DISCOUNTED_PRICE()": "8cc6d162",
        "PRICE()": "8d859f3e",
        "_addToPresaleList(address,uint256,uint256)": "c8a12db2",
        "acceptOwnership()": "79ba5097",
        "approve(address,uint256)": "095ea7b3",
        "balanceOf(address)": "70a08231",
        "getApproved(uint256)": "081812fc",
        "isApprovedForAll(address,address)": "e985e9c5",
        "name()": "06fdde03",
        "owner()": "8da5cb5b",
        "ownerOf(uint256)": "6352211e",
        "pendingOwner()": "e30c3978",
        "presale(uint256,uint256,bytes32[])": "a3e9ecb9",
        "publicMint()": "26092b83",
        "renounceOwnership()": "715018a6",
        "royaltyInfo(uint256,uint256)": "2a55205a",
        "safeTransferFrom(address,address,uint256)": "42842e0e",
        "safeTransferFrom(address,address,uint256,bytes)": "b88d4fde",
        "setApprovalForAll(address,bool)": "a22cb465",
        "setMerkleRoot(bytes32)": "7cb64759",
        "supportsInterface(bytes4)": "01ffc9a7",
        "symbol()": "95d89b41",
        "tokenURI(uint256)": "c87b56dd",
        "totalSupply()": "18160ddd",
        "transferFrom(address,address,uint256)": "23b872dd",
        "transferOwnership(address)": "f2fde38b"
    },
    "gasEstimates": {
        "creation": {
            "codeDepositCost": "1584400",
            "executionCost": "infinite",
            "totalCost": "infinite"
        },
        "external": {
            "DISCOUNTED_PRICE()": "infinite",
            "PRICE()": "infinite",
            "_addToPresaleList(address,uint256,uint256)": "49095",
            "acceptOwnership()": "82478",
            "approve(address,uint256)": "infinite",
            "balanceOf(address)": "2656",
            "getApproved(uint256)": "4792",
            "isApprovedForAll(address,address)": "infinite",
            "name()": "infinite",
            "owner()": "2420",
            "ownerOf(uint256)": "2583",
            "pendingOwner()": "2397",
            "presale(uint256,uint256,bytes32[])": "infinite",
            "publicMint()": "infinite",
            "renounceOwnership()": "347",
            "royaltyInfo(uint256,uint256)": "5167",
            "safeTransferFrom(address,address,uint256)": "infinite",
            "safeTransferFrom(address,address,uint256,bytes)": "infinite",
            "setApprovalForAll(address,bool)": "26816",
            "setMerkleRoot(bytes32)": "22335",
            "supportsInterface(bytes4)": "infinite",
            "symbol()": "infinite",
            "tokenURI(uint256)": "infinite",
            "totalSupply()": "2407",
            "transferFrom(address,address,uint256)": "infinite",
            "transferOwnership(address)": "32665"
        },
        "internal": {
            "_verifyProof(address,bytes32[] memory)": "infinite"
        }
    }
}